{
  "_format": "hh-sol-artifact-1",
  "contractName": "Token",
  "sourceName": "contracts/Token.sol",
  "abi": [
    {
      "anonymous": false,
      "inputs": [
        {
          "indexed": true,
          "internalType": "address",
          "name": "_from",
          "type": "address"
        },
        {
          "indexed": true,
          "internalType": "address",
          "name": "_to",
          "type": "address"
        },
        {
          "indexed": false,
          "internalType": "uint256",
          "name": "_value",
          "type": "uint256"
        }
      ],
      "name": "Transfer",
      "type": "event"
    },
    {
      "inputs": [
        {
          "internalType": "address",
          "name": "account",
          "type": "address"
        }
      ],
      "name": "balanceOf",
      "outputs": [
        {
          "internalType": "uint256",
          "name": "",
          "type": "uint256"
        }
      ],
      "stateMutability": "view",
      "type": "function"
    },
    {
      "inputs": [],
      "name": "name",
      "outputs": [
        {
          "internalType": "string",
          "name": "",
          "type": "string"
        }
      ],
      "stateMutability": "view",
      "type": "function"
    },
    {
      "inputs": [],
      "name": "owner",
      "outputs": [
        {
          "internalType": "address",
          "name": "",
          "type": "address"
        }
      ],
      "stateMutability": "view",
      "type": "function"
    },
    {
      "inputs": [],
      "name": "symbol",
      "outputs": [
        {
          "internalType": "string",
          "name": "",
          "type": "string"
        }
      ],
      "stateMutability": "view",
      "type": "function"
    },
    {
      "inputs": [],
      "name": "totalSupply",
      "outputs": [
        {
          "internalType": "uint256",
          "name": "",
          "type": "uint256"
        }
      ],
      "stateMutability": "view",
      "type": "function"
    }
  ],
  "bytecode": "0x60806040526040518060400160405280601081526020017f4d79204861726468617420546f6b656e00000000000000000000000000000000815250600090816200004a919062000327565b506040518060400160405280600381526020017f4d485400000000000000000000000000000000000000000000000000000000008152506001908162000091919062000327565b50620f4240600255348015620000a657600080fd5b506200040e565b600081519050919050565b7f4e487b7100000000000000000000000000000000000000000000000000000000600052604160045260246000fd5b7f4e487b7100000000000000000000000000000000000000000000000000000000600052602260045260246000fd5b600060028204905060018216806200012f57607f821691505b602082108103620001455762000144620000e7565b5b50919050565b60008190508160005260206000209050919050565b60006020601f8301049050919050565b600082821b905092915050565b600060088302620001af7fffffffffffffffffffffffffffffffffffffffffffffffffffffffffffffffff8262000170565b620001bb868362000170565b95508019841693508086168417925050509392505050565b6000819050919050565b6000819050919050565b60006200020862000202620001fc84620001d3565b620001dd565b620001d3565b9050919050565b6000819050919050565b6200022483620001e7565b6200023c62000233826200020f565b8484546200017d565b825550505050565b600090565b6200025362000244565b6200026081848462000219565b505050565b5b8181101562000288576200027c60008262000249565b60018101905062000266565b5050565b601f821115620002d757620002a1816200014b565b620002ac8462000160565b81016020851015620002bc578190505b620002d4620002cb8562000160565b83018262000265565b50505b505050565b600082821c905092915050565b6000620002fc60001984600802620002dc565b1980831691505092915050565b6000620003178383620002e9565b9150826002028217905092915050565b6200033282620000ad565b67ffffffffffffffff8111156200034e576200034d620000b8565b5b6200035a825462000116565b620003678282856200028c565b600060209050601f8311600181146200039f57600084156200038a578287015190505b62000396858262000309565b86555062000406565b601f198416620003af866200014b565b60005b82811015620003d957848901518255600182019150602085019450602081019050620003b2565b86831015620003f95784890151620003f5601f891682620002e9565b8355505b6001600288020188555050505b505050505050565b6104cb806200041e6000396000f3fe608060405234801561001057600080fd5b50600436106100575760003560e01c806306fdde031461005c57806318160ddd1461007a57806370a08231146100985780638da5cb5b146100c857806395d89b41146100e6575b600080fd5b610064610104565b6040516100719190610325565b60405180910390f35b610082610192565b60405161008f9190610360565b60405180910390f35b6100b260048036038101906100ad91906103de565b610198565b6040516100bf9190610360565b60405180910390f35b6100d06101e1565b6040516100dd919061041a565b60405180910390f35b6100ee610207565b6040516100fb9190610325565b60405180910390f35b6000805461011190610464565b80601f016020809104026020016040519081016040528092919081815260200182805461013d90610464565b801561018a5780601f1061015f5761010080835404028352916020019161018a565b820191906000526020600020905b81548152906001019060200180831161016d57829003601f168201915b505050505081565b60025481565b6000600460008373ffffffffffffffffffffffffffffffffffffffff1673ffffffffffffffffffffffffffffffffffffffff168152602001908152602001600020549050919050565b600360009054906101000a900473ffffffffffffffffffffffffffffffffffffffff1681565b6001805461021490610464565b80601f016020809104026020016040519081016040528092919081815260200182805461024090610464565b801561028d5780601f106102625761010080835404028352916020019161028d565b820191906000526020600020905b81548152906001019060200180831161027057829003601f168201915b505050505081565b600081519050919050565b600082825260208201905092915050565b60005b838110156102cf5780820151818401526020810190506102b4565b60008484015250505050565b6000601f19601f8301169050919050565b60006102f782610295565b61030181856102a0565b93506103118185602086016102b1565b61031a816102db565b840191505092915050565b6000602082019050818103600083015261033f81846102ec565b905092915050565b6000819050919050565b61035a81610347565b82525050565b60006020820190506103756000830184610351565b92915050565b600080fd5b600073ffffffffffffffffffffffffffffffffffffffff82169050919050565b60006103ab82610380565b9050919050565b6103bb816103a0565b81146103c657600080fd5b50565b6000813590506103d8816103b2565b92915050565b6000602082840312156103f4576103f361037b565b5b6000610402848285016103c9565b91505092915050565b610414816103a0565b82525050565b600060208201905061042f600083018461040b565b92915050565b7f4e487b7100000000000000000000000000000000000000000000000000000000600052602260045260246000fd5b6000600282049050600182168061047c57607f821691505b60208210810361048f5761048e610435565b5b5091905056fea264697066735822122021e8c3c1019e40e62f02f7c770cf65c41f1909b1f988aaa41b6ec21302449bb164736f6c63430008110033",
  "linkReferences": {},
  "deployedLinkReferences": {}
}